{
  "_format": "hh-sol-artifact-1",
  "contractName": "CryptoDevsDAO",
  "sourceName": "contracts/CryptoDevsDAO.sol",
  "abi": [
    {
      "inputs": [
        {
          "internalType": "address",
          "name": "_fakeNFTMarketplace",
          "type": "address"
        },
        {
          "internalType": "address",
          "name": "_cryptoDevsNFT",
          "type": "address"
        }
      ],
      "stateMutability": "payable",
      "type": "constructor"
    },
    {
      "anonymous": false,
      "inputs": [
        {
          "indexed": true,
          "internalType": "address",
          "name": "previousOwner",
          "type": "address"
        },
        {
          "indexed": true,
          "internalType": "address",
          "name": "newOwner",
          "type": "address"
        }
      ],
      "name": "OwnershipTransferred",
      "type": "event"
    },
    {
      "stateMutability": "payable",
      "type": "fallback"
    },
    {
      "inputs": [
        {
          "internalType": "uint256",
          "name": "_nftTokenId",
          "type": "uint256"
        }
      ],
      "name": "createProposal",
      "outputs": [
        {
          "internalType": "uint256",
          "name": "",
          "type": "uint256"
        }
      ],
      "stateMutability": "nonpayable",
      "type": "function"
    },
    {
      "inputs": [
        {
          "internalType": "uint256",
          "name": "_proposalIndex",
          "type": "uint256"
        }
      ],
      "name": "executeProposal",
      "outputs": [],
      "stateMutability": "nonpayable",
      "type": "function"
    },
    {
      "inputs": [],
      "name": "numberOfProposalsMade",
      "outputs": [
        {
          "internalType": "uint256",
          "name": "",
          "type": "uint256"
        }
      ],
      "stateMutability": "view",
      "type": "function"
    },
    {
      "inputs": [],
      "name": "owner",
      "outputs": [
        {
          "internalType": "address",
          "name": "",
          "type": "address"
        }
      ],
      "stateMutability": "view",
      "type": "function"
    },
    {
      "inputs": [
        {
          "internalType": "uint256",
          "name": "",
          "type": "uint256"
        }
      ],
      "name": "proposals",
      "outputs": [
        {
          "internalType": "uint256",
          "name": "tokenId",
          "type": "uint256"
        },
        {
          "internalType": "uint256",
          "name": "deadline",
          "type": "uint256"
        },
        {
          "internalType": "uint256",
          "name": "approvedVotes",
          "type": "uint256"
        },
        {
          "internalType": "uint256",
          "name": "declinedVotes",
          "type": "uint256"
        },
        {
          "internalType": "bool",
          "name": "isPropsalExecuted",
          "type": "bool"
        }
      ],
      "stateMutability": "view",
      "type": "function"
    },
    {
      "inputs": [],
      "name": "renounceOwnership",
      "outputs": [],
      "stateMutability": "nonpayable",
      "type": "function"
    },
    {
      "inputs": [
        {
          "internalType": "address",
          "name": "newOwner",
          "type": "address"
        }
      ],
      "name": "transferOwnership",
      "outputs": [],
      "stateMutability": "nonpayable",
      "type": "function"
    },
    {
      "inputs": [
        {
          "internalType": "uint256",
          "name": "_proposalIndex",
          "type": "uint256"
        },
        {
          "internalType": "enum CryptoDevsDAO.Vote",
          "name": "_vote",
          "type": "uint8"
        }
      ],
      "name": "voteOnProposal",
      "outputs": [],
      "stateMutability": "nonpayable",
      "type": "function"
    },
    {
      "inputs": [],
      "name": "withdrawEth",
      "outputs": [],
      "stateMutability": "nonpayable",
      "type": "function"
    },
    {
      "stateMutability": "payable",
      "type": "receive"
    }
  ],
  "bytecode": "0x608060405260405162001a9238038062001a92833981810160405281019062000029919062000209565b620000496200003d620000d360201b60201c565b620000db60201b60201c565b81600360006101000a81548173ffffffffffffffffffffffffffffffffffffffff021916908373ffffffffffffffffffffffffffffffffffffffff16021790555080600460006101000a81548173ffffffffffffffffffffffffffffffffffffffff021916908373ffffffffffffffffffffffffffffffffffffffff160217905550505062000250565b600033905090565b60008060009054906101000a900473ffffffffffffffffffffffffffffffffffffffff169050816000806101000a81548173ffffffffffffffffffffffffffffffffffffffff021916908373ffffffffffffffffffffffffffffffffffffffff1602179055508173ffffffffffffffffffffffffffffffffffffffff168173ffffffffffffffffffffffffffffffffffffffff167f8be0079c531659141344cd1fd0a4f28419497f9722a3daafe3b4186f6b6457e060405160405180910390a35050565b600080fd5b600073ffffffffffffffffffffffffffffffffffffffff82169050919050565b6000620001d182620001a4565b9050919050565b620001e381620001c4565b8114620001ef57600080fd5b50565b6000815190506200020381620001d8565b92915050565b600080604083850312156200022357620002226200019f565b5b60006200023385828601620001f2565b92505060206200024685828601620001f2565b9150509250929050565b61183280620002606000396000f3fe60806040526004361061008a5760003560e01c8063715018a611610059578063715018a6146101655780638da5cb5b1461017c578063a0ef91df146101a7578063efafb22e146101be578063f2fde38b146101e757610091565b8063013cf08b146100935780630d61b519146100d457806342bdabef146100fd5780635a43dc001461012857610091565b3661009157005b005b34801561009f57600080fd5b506100ba60048036038101906100b59190610ede565b610210565b6040516100cb959493929190610f35565b60405180910390f35b3480156100e057600080fd5b506100fb60048036038101906100f69190610ede565b610253565b005b34801561010957600080fd5b506101126105a3565b60405161011f9190610f88565b60405180910390f35b34801561013457600080fd5b5061014f600480360381019061014a9190610ede565b6105a9565b60405161015c9190610f88565b60405180910390f35b34801561017157600080fd5b5061017a6107ca565b005b34801561018857600080fd5b506101916107de565b60405161019e9190610fe4565b60405180910390f35b3480156101b357600080fd5b506101bc610807565b005b3480156101ca57600080fd5b506101e560048036038101906101e09190611024565b61090e565b005b3480156101f357600080fd5b5061020e60048036038101906102099190611090565b610cd6565b005b60016020528060005260406000206000915090508060000154908060010154908060020154908060030154908060040160009054906101000a900460ff16905085565b6000600460009054906101000a900473ffffffffffffffffffffffffffffffffffffffff1673ffffffffffffffffffffffffffffffffffffffff166370a08231336040518263ffffffff1660e01b81526004016102b09190610fe4565b602060405180830381865afa1580156102cd573d6000803e3d6000fd5b505050506040513d601f19601f820116820180604052508101906102f191906110d2565b11610331576040517f08c379a00000000000000000000000000000000000000000000000000000000081526004016103289061115c565b60405180910390fd5b80426001600083815260200190815260200160002060010154111561038b576040517f08c379a0000000000000000000000000000000000000000000000000000000008152600401610382906111ee565b60405180910390fd5b6001600082815260200190815260200160002060040160009054906101000a900460ff16156103ef576040517f08c379a00000000000000000000000000000000000000000000000000000000081526004016103e69061125a565b60405180910390fd5b6000600160008481526020019081526020016000209050806003015481600201541115610581576000600360009054906101000a900473ffffffffffffffffffffffffffffffffffffffff1673ffffffffffffffffffffffffffffffffffffffff166398d5fdca6040518163ffffffff1660e01b8152600401602060405180830381865afa158015610485573d6000803e3d6000fd5b505050506040513d601f19601f820116820180604052508101906104a991906110d2565b90508047116104ed576040517f08c379a00000000000000000000000000000000000000000000000000000000081526004016104e4906112c6565b60405180910390fd5b600360009054906101000a900473ffffffffffffffffffffffffffffffffffffffff1673ffffffffffffffffffffffffffffffffffffffff1663c4175a448284600001546040518363ffffffff1660e01b815260040161054d9190610f88565b6000604051808303818588803b15801561056657600080fd5b505af115801561057a573d6000803e3d6000fd5b5050505050505b60018160040160006101000a81548160ff021916908315150217905550505050565b60025481565b600080600460009054906101000a900473ffffffffffffffffffffffffffffffffffffffff1673ffffffffffffffffffffffffffffffffffffffff166370a08231336040518263ffffffff1660e01b81526004016106079190610fe4565b602060405180830381865afa158015610624573d6000803e3d6000fd5b505050506040513d601f19601f8201168201806040525081019061064891906110d2565b11610688576040517f08c379a000000000000000000000000000000000000000000000000000000000815260040161067f9061115c565b60405180910390fd5b600360009054906101000a900473ffffffffffffffffffffffffffffffffffffffff1673ffffffffffffffffffffffffffffffffffffffff16633a178d99836040518263ffffffff1660e01b81526004016106e39190610f88565b602060405180830381865afa158015610700573d6000803e3d6000fd5b505050506040513d601f19601f820116820180604052508101906107249190611312565b610763576040517f08c379a000000000000000000000000000000000000000000000000000000000815260040161075a9061138b565b60405180910390fd5b6000600160006002548152602001908152602001600020905082816000018190555061012c4261079391906113da565b8160010181905550600260008154809291906107ae9061140e565b919050555060016002546107c29190611456565b915050919050565b6107d2610d59565b6107dc6000610dd7565b565b60008060009054906101000a900473ffffffffffffffffffffffffffffffffffffffff16905090565b61080f610d59565b600047905060008111610857576040517f08c379a000000000000000000000000000000000000000000000000000000000815260040161084e906114d6565b60405180910390fd5b60006108616107de565b73ffffffffffffffffffffffffffffffffffffffff168260405161088490611527565b60006040518083038185875af1925050503d80600081146108c1576040519150601f19603f3d011682016040523d82523d6000602084013e6108c6565b606091505b505090508061090a576040517f08c379a0000000000000000000000000000000000000000000000000000000008152600401610901906115ae565b60405180910390fd5b5050565b6000600460009054906101000a900473ffffffffffffffffffffffffffffffffffffffff1673ffffffffffffffffffffffffffffffffffffffff166370a08231336040518263ffffffff1660e01b815260040161096b9190610fe4565b602060405180830381865afa158015610988573d6000803e3d6000fd5b505050506040513d601f19601f820116820180604052508101906109ac91906110d2565b116109ec576040517f08c379a00000000000000000000000000000000000000000000000000000000081526004016109e39061115c565b60405180910390fd5b8142600160008381526020019081526020016000206001015411610a45576040517f08c379a0000000000000000000000000000000000000000000000000000000008152600401610a3c9061161a565b60405180910390fd5b60006001600085815260200190815260200160002090506000600460009054906101000a900473ffffffffffffffffffffffffffffffffffffffff1673ffffffffffffffffffffffffffffffffffffffff166370a08231336040518263ffffffff1660e01b8152600401610ab99190610fe4565b602060405180830381865afa158015610ad6573d6000803e3d6000fd5b505050506040513d601f19601f82011682018060405250810190610afa91906110d2565b90506000805b82811015610c22576000600460009054906101000a900473ffffffffffffffffffffffffffffffffffffffff1673ffffffffffffffffffffffffffffffffffffffff16632f745c5933846040518363ffffffff1660e01b8152600401610b6792919061163a565b602060405180830381865afa158015610b84573d6000803e3d6000fd5b505050506040513d601f19601f82011682018060405250810190610ba891906110d2565b905084600501600082815260200190815260200160002060009054906101000a900460ff16610c0e578280610bdc9061140e565b935050600185600501600083815260200190815260200160002060006101000a81548160ff0219169083151502179055505b508080610c1a9061140e565b915050610b00565b5060008111610c66576040517f08c379a0000000000000000000000000000000000000000000000000000000008152600401610c5d906116af565b60405180910390fd5b60006001811115610c7a57610c796116cf565b5b856001811115610c8d57610c8c6116cf565b5b03610cb25780836002016000828254610ca691906113da565b92505081905550610cce565b80836003016000828254610cc691906113da565b925050819055505b505050505050565b610cde610d59565b600073ffffffffffffffffffffffffffffffffffffffff168173ffffffffffffffffffffffffffffffffffffffff1603610d4d576040517f08c379a0000000000000000000000000000000000000000000000000000000008152600401610d4490611770565b60405180910390fd5b610d5681610dd7565b50565b610d61610e9b565b73ffffffffffffffffffffffffffffffffffffffff16610d7f6107de565b73ffffffffffffffffffffffffffffffffffffffff1614610dd5576040517f08c379a0000000000000000000000000000000000000000000000000000000008152600401610dcc906117dc565b60405180910390fd5b565b60008060009054906101000a900473ffffffffffffffffffffffffffffffffffffffff169050816000806101000a81548173ffffffffffffffffffffffffffffffffffffffff021916908373ffffffffffffffffffffffffffffffffffffffff1602179055508173ffffffffffffffffffffffffffffffffffffffff168173ffffffffffffffffffffffffffffffffffffffff167f8be0079c531659141344cd1fd0a4f28419497f9722a3daafe3b4186f6b6457e060405160405180910390a35050565b600033905090565b600080fd5b6000819050919050565b610ebb81610ea8565b8114610ec657600080fd5b50565b600081359050610ed881610eb2565b92915050565b600060208284031215610ef457610ef3610ea3565b5b6000610f0284828501610ec9565b91505092915050565b610f1481610ea8565b82525050565b60008115159050919050565b610f2f81610f1a565b82525050565b600060a082019050610f4a6000830188610f0b565b610f576020830187610f0b565b610f646040830186610f0b565b610f716060830185610f0b565b610f7e6080830184610f26565b9695505050505050565b6000602082019050610f9d6000830184610f0b565b92915050565b600073ffffffffffffffffffffffffffffffffffffffff82169050919050565b6000610fce82610fa3565b9050919050565b610fde81610fc3565b82525050565b6000602082019050610ff96000830184610fd5565b92915050565b6002811061100c57600080fd5b50565b60008135905061101e81610fff565b92915050565b6000806040838503121561103b5761103a610ea3565b5b600061104985828601610ec9565b925050602061105a8582860161100f565b9150509250929050565b61106d81610fc3565b811461107857600080fd5b50565b60008135905061108a81611064565b92915050565b6000602082840312156110a6576110a5610ea3565b5b60006110b48482850161107b565b91505092915050565b6000815190506110cc81610eb2565b92915050565b6000602082840312156110e8576110e7610ea3565b5b60006110f6848285016110bd565b91505092915050565b600082825260208201905092915050565b7f446f6573206e6f742068617665204e46542e0000000000000000000000000000600082015250565b60006111466012836110ff565b915061115182611110565b602082019050919050565b6000602082019050818103600083015261117581611139565b9050919050565b7f596f75207374696c6c20686176652074696d6520746f20766f74652e2050726f60008201527f706f73616c2063616e6e6f74206265206578656375746564206e6f772e000000602082015250565b60006111d8603d836110ff565b91506111e38261117c565b604082019050919050565b60006020820190508181036000830152611207816111cb565b9050919050565b7f50726f706f73616c20657865637574656420616c72656164792e000000000000600082015250565b6000611244601a836110ff565b915061124f8261120e565b602082019050919050565b6000602082019050818103600083015261127381611237565b9050919050565b7f4e6f7420656e6f7567682066756e64732e000000000000000000000000000000600082015250565b60006112b06011836110ff565b91506112bb8261127a565b602082019050919050565b600060208201905081810360008301526112df816112a3565b9050919050565b6112ef81610f1a565b81146112fa57600080fd5b50565b60008151905061130c816112e6565b92915050565b60006020828403121561132857611327610ea3565b5b6000611336848285016112fd565b91505092915050565b7f54686973204e4654206973206e6f7420666f722073616c652e00000000000000600082015250565b60006113756019836110ff565b91506113808261133f565b602082019050919050565b600060208201905081810360008301526113a481611368565b9050919050565b7f4e487b7100000000000000000000000000000000000000000000000000000000600052601160045260246000fd5b60006113e582610ea8565b91506113f083610ea8565b9250828201905080821115611408576114076113ab565b5b92915050565b600061141982610ea8565b91507fffffffffffffffffffffffffffffffffffffffffffffffffffffffffffffffff820361144b5761144a6113ab565b5b600182019050919050565b600061146182610ea8565b915061146c83610ea8565b9250828203905081811115611484576114836113ab565b5b92915050565b7f4e6f2066756e647320746f2077697468647261772e0000000000000000000000600082015250565b60006114c06015836110ff565b91506114cb8261148a565b602082019050919050565b600060208201905081810360008301526114ef816114b3565b9050919050565b600081905092915050565b50565b60006115116000836114f6565b915061151c82611501565b600082019050919050565b600061153282611504565b9150819050919050565b7f4661696c656420746f2077697468647261772066756e64732066726f6d20636f60008201527f6e74726163742e00000000000000000000000000000000000000000000000000602082015250565b60006115986027836110ff565b91506115a38261153c565b604082019050919050565b600060208201905081810360008301526115c78161158b565b9050919050565b7f446561646c696e6520666f7220766f74652065786365656465642e0000000000600082015250565b6000611604601b836110ff565b915061160f826115ce565b602082019050919050565b60006020820190508181036000830152611633816115f7565b9050919050565b600060408201905061164f6000830185610fd5565b61165c6020830184610f0b565b9392505050565b7f4e6f7420656e6f75676820766f7465732e000000000000000000000000000000600082015250565b60006116996011836110ff565b91506116a482611663565b602082019050919050565b600060208201905081810360008301526116c88161168c565b9050919050565b7f4e487b7100000000000000000000000000000000000000000000000000000000600052602160045260246000fd5b7f4f776e61626c653a206e6577206f776e657220697320746865207a65726f206160008201527f6464726573730000000000000000000000000000000000000000000000000000602082015250565b600061175a6026836110ff565b9150611765826116fe565b604082019050919050565b600060208201905081810360008301526117898161174d565b9050919050565b7f4f776e61626c653a2063616c6c6572206973206e6f7420746865206f776e6572600082015250565b60006117c66020836110ff565b91506117d182611790565b602082019050919050565b600060208201905081810360008301526117f5816117b9565b905091905056fea264697066735822122084129e5228e1eea10318b89534b60f55ed7fe8109921303a0b93a917a6370f5d64736f6c63430008120033",
  "linkReferences": {},
  "deployedLinkReferences": {}
}