{
  "_format": "hh-sol-artifact-1",
  "contractName": "FakeNFTMarketPlace",
  "sourceName": "contracts/FakeNFTMarketplace.sol",
  "abi": [
    {
      "inputs": [],
      "name": "getPrice",
      "outputs": [
        {
          "internalType": "uint256",
          "name": "",
          "type": "uint256"
        }
      ],
      "stateMutability": "view",
      "type": "function"
    },
    {
      "inputs": [
        {
          "internalType": "uint256",
          "name": "_tokenId",
          "type": "uint256"
        }
      ],
      "name": "isAvailable",
      "outputs": [
        {
          "internalType": "bool",
          "name": "",
          "type": "bool"
        }
      ],
      "stateMutability": "view",
      "type": "function"
    },
    {
      "inputs": [
        {
          "internalType": "uint256",
          "name": "_tokenId",
          "type": "uint256"
        }
      ],
      "name": "makePurchase",
      "outputs": [],
      "stateMutability": "payable",
      "type": "function"
    }
  ],
  "bytecode": "0x608060405234801561001057600080fd5b5061035e806100206000396000f3fe6080604052600436106100345760003560e01c80633a178d991461003957806398d5fdca14610076578063c4175a44146100a1575b600080fd5b34801561004557600080fd5b50610060600480360381019061005b919061021e565b6100bd565b60405161006d9190610266565b60405180910390f35b34801561008257600080fd5b5061008b610137565b6040516100989190610290565b60405180910390f35b6100bb60048036038101906100b6919061021e565b610146565b005b60008073ffffffffffffffffffffffffffffffffffffffff1660008084815260200190815260200160002060009054906101000a900473ffffffffffffffffffffffffffffffffffffffff1673ffffffffffffffffffffffffffffffffffffffff160361012d5760019050610132565b600090505b919050565b6000662386f26fc10000905090565b662386f26fc10000341461018f576040517f08c379a000000000000000000000000000000000000000000000000000000000815260040161018690610308565b60405180910390fd5b3360008083815260200190815260200160002060006101000a81548173ffffffffffffffffffffffffffffffffffffffff021916908373ffffffffffffffffffffffffffffffffffffffff16021790555050565b600080fd5b6000819050919050565b6101fb816101e8565b811461020657600080fd5b50565b600081359050610218816101f2565b92915050565b600060208284031215610234576102336101e3565b5b600061024284828501610209565b91505092915050565b60008115159050919050565b6102608161024b565b82525050565b600060208201905061027b6000830184610257565b92915050565b61028a816101e8565b82525050565b60006020820190506102a56000830184610281565b92915050565b600082825260208201905092915050565b7f54686973204e465420636f73747320302e30312065746865722e000000000000600082015250565b60006102f2601a836102ab565b91506102fd826102bc565b602082019050919050565b60006020820190508181036000830152610321816102e5565b905091905056fea2646970667358221220139dc7f9512767503c67681344247000cc532957b06b2f4e395f301e2ee9b91464736f6c63430008120033",
  "linkReferences": {},
  "deployedLinkReferences": {}
}